{
  "contractName": "ReentrancyAttack",
  "abi": [
    {
      "inputs": [
        {
          "internalType": "bytes4",
          "name": "data",
          "type": "bytes4"
        }
      ],
      "name": "callSender",
      "outputs": [],
      "stateMutability": "nonpayable",
      "type": "function"
    }
  ],
  "bytecode": "0x608060405234801561001057600080fd5b50610334806100206000396000f3fe608060405234801561001057600080fd5b506004361061002b5760003560e01c80630a2df1ed14610030575b600080fd5b61004a60048036038101906100459190610184565b61004c565b005b6000610056610167565b73ffffffffffffffffffffffffffffffffffffffff1682604051602401604051602081830303815290604052907bffffffffffffffffffffffffffffffffffffffffffffffffffffffff19166020820180517bffffffffffffffffffffffffffffffffffffffffffffffffffffffff83818316178352505050506040516100dd9190610201565b6000604051808303816000865af19150503d806000811461011a576040519150601f19603f3d011682016040523d82523d6000602084013e61011f565b606091505b5050905080610163576040517f08c379a000000000000000000000000000000000000000000000000000000000815260040161015a90610218565b60405180910390fd5b5050565b600033905090565b60008135905061017e816102e7565b92915050565b60006020828403121561019657600080fd5b60006101a48482850161016f565b91505092915050565b60006101b882610238565b6101c28185610243565b93506101d281856020860161028b565b80840191505092915050565b60006101eb601d8361024e565b91506101f6826102be565b602082019050919050565b600061020d82846101ad565b915081905092915050565b60006020820190508181036000830152610231816101de565b9050919050565b600081519050919050565b600081905092915050565b600082825260208201905092915050565b60007fffffffff0000000000000000000000000000000000000000000000000000000082169050919050565b60005b838110156102a957808201518184015260208101905061028e565b838111156102b8576000848401525b50505050565b7f5265656e7472616e637941747461636b3a206661696c65642063616c6c000000600082015250565b6102f08161025f565b81146102fb57600080fd5b5056fea264697066735822122000ca696eda51d65fa37c8a90ae1ace86432aa173288ee8e47fc4cc022a2f3f7664736f6c63430008030033",
  "immutableReferences": {},
  "source": "// SPDX-License-Identifier: MIT\n\npragma solidity ^0.8.0;\n\nimport \"../utils/Context.sol\";\ncontract ReentrancyAttack is Context {\n    function callSender(bytes4 data) public {\n        // solhint-disable-next-line avoid-low-level-calls\n        (bool success,) = _msgSender().call(abi.encodeWithSelector(data));\n        require(success, \"ReentrancyAttack: failed call\");\n    }\n}\n",
  "sourcePath": "/Users/thestar/Development/go/src/myprojects/contract-console/contracts/mocks/ReentrancyAttack.sol",
  "compiler": {
    "name": "solc",
    "version": "0.8.3+commit.8d00100c.Emscripten.clang"
  },
  "schemaVersion": "3.4.1",
  "updatedAt": "2021-07-07T09:47:29.133Z",
  "devdoc": {
    "kind": "dev",
    "methods": {},
    "version": 1
  },
  "userdoc": {
    "kind": "user",
    "methods": {},
    "version": 1
  }
}