{
  "contractName": "UUPSUpgradeableUnsafeMock",
  "abi": [
    {
      "anonymous": false,
      "inputs": [
        {
          "indexed": false,
          "internalType": "address",
          "name": "previousAdmin",
          "type": "address"
        },
        {
          "indexed": false,
          "internalType": "address",
          "name": "newAdmin",
          "type": "address"
        }
      ],
      "name": "AdminChanged",
      "type": "event"
    },
    {
      "anonymous": false,
      "inputs": [
        {
          "indexed": true,
          "internalType": "address",
          "name": "beacon",
          "type": "address"
        }
      ],
      "name": "BeaconUpgraded",
      "type": "event"
    },
    {
      "anonymous": false,
      "inputs": [
        {
          "indexed": true,
          "internalType": "address",
          "name": "implementation",
          "type": "address"
        }
      ],
      "name": "Upgraded",
      "type": "event"
    },
    {
      "inputs": [],
      "name": "current",
      "outputs": [
        {
          "internalType": "uint256",
          "name": "",
          "type": "uint256"
        }
      ],
      "stateMutability": "view",
      "type": "function"
    },
    {
      "inputs": [],
      "name": "decrement",
      "outputs": [],
      "stateMutability": "nonpayable",
      "type": "function"
    },
    {
      "inputs": [],
      "name": "increment",
      "outputs": [],
      "stateMutability": "nonpayable",
      "type": "function"
    },
    {
      "inputs": [
        {
          "internalType": "address",
          "name": "newImplementation",
          "type": "address"
        }
      ],
      "name": "upgradeTo",
      "outputs": [],
      "stateMutability": "nonpayable",
      "type": "function"
    },
    {
      "inputs": [
        {
          "internalType": "address",
          "name": "newImplementation",
          "type": "address"
        },
        {
          "internalType": "bytes",
          "name": "data",
          "type": "bytes"
        }
      ],
      "name": "upgradeToAndCall",
      "outputs": [],
      "stateMutability": "payable",
      "type": "function"
    }
  ],
  "bytecode": "0x608060405234801561001057600080fd5b506109ac806100206000396000f3fe60806040526004361061004a5760003560e01c80632baeceb71461004f5780633659cfe6146100665780634f1ef2861461008f5780639fa6a6e3146100ab578063d09de08a146100d6575b600080fd5b34801561005b57600080fd5b506100646100ed565b005b34801561007257600080fd5b5061008d600480360381019061008891906104e7565b6100f9565b005b6100a960048036038101906100a49190610510565b610117565b005b3480156100b757600080fd5b506100c0610127565b6040516100cd91906106df565b60405180910390f35b3480156100e257600080fd5b506100eb610138565b005b6100f76000610144565b565b610114816040518060200160405280600081525060006101a0565b50565b610123828260006101a0565b5050565b6000610133600061020f565b905090565b610142600061021d565b565b60008160000154905060008111610190576040517f08c379a00000000000000000000000000000000000000000000000000000000081526004016101879061067f565b60405180910390fd5b6001810382600001819055505050565b6101a983610233565b8273ffffffffffffffffffffffffffffffffffffffff167fbc7cd75a20ee27fd9adebab32041f755214dbc6bffa90cc0225b39da2e5c2d3b60405160405180910390a26000825111806101f95750805b1561020a5761020883836102ec565b505b505050565b600081600001549050919050565b6001816000016000828254019250508190555050565b61023c81610319565b61027b576040517f08c379a00000000000000000000000000000000000000000000000000000000081526004016102729061069f565b60405180910390fd5b806102a87f360894a13ba1a3210667c828492db98dca3e2076cc3735a920a3ca505d382bbc60001b61032c565b60000160006101000a81548173ffffffffffffffffffffffffffffffffffffffff021916908373ffffffffffffffffffffffffffffffffffffffff16021790555050565b6060610311838360405180606001604052806027815260200161095060279139610336565b905092915050565b600080823b905060008111915050919050565b6000819050919050565b606061034184610319565b610380576040517f08c379a0000000000000000000000000000000000000000000000000000000008152600401610377906106bf565b60405180910390fd5b6000808573ffffffffffffffffffffffffffffffffffffffff16856040516103a89190610646565b600060405180830381855af49150503d80600081146103e3576040519150601f19603f3d011682016040523d82523d6000602084013e6103e8565b606091505b50915091506103f8828286610403565b925050509392505050565b6060831561041357829050610463565b6000835111156104265782518084602001fd5b816040517f08c379a000000000000000000000000000000000000000000000000000000000815260040161045a919061065d565b60405180910390fd5b9392505050565b600061047d6104788461071f565b6106fa565b90508281526020810184848401111561049557600080fd5b6104a08482856107be565b509392505050565b6000813590506104b781610938565b92915050565b600082601f8301126104ce57600080fd5b81356104de84826020860161046a565b91505092915050565b6000602082840312156104f957600080fd5b6000610507848285016104a8565b91505092915050565b6000806040838503121561052357600080fd5b6000610531858286016104a8565b925050602083013567ffffffffffffffff81111561054e57600080fd5b61055a858286016104bd565b9150509250929050565b600061056f82610750565b6105798185610766565b93506105898185602086016107cd565b80840191505092915050565b60006105a08261075b565b6105aa8185610771565b93506105ba8185602086016107cd565b6105c381610860565b840191505092915050565b60006105db601b83610771565b91506105e682610871565b602082019050919050565b60006105fe602d83610771565b91506106098261089a565b604082019050919050565b6000610621602683610771565b915061062c826108e9565b604082019050919050565b610640816107b4565b82525050565b60006106528284610564565b915081905092915050565b600060208201905081810360008301526106778184610595565b905092915050565b60006020820190508181036000830152610698816105ce565b9050919050565b600060208201905081810360008301526106b8816105f1565b9050919050565b600060208201905081810360008301526106d881610614565b9050919050565b60006020820190506106f46000830184610637565b92915050565b6000610704610715565b90506107108282610800565b919050565b6000604051905090565b600067ffffffffffffffff82111561073a57610739610831565b5b61074382610860565b9050602081019050919050565b600081519050919050565b600081519050919050565b600081905092915050565b600082825260208201905092915050565b600061078d82610794565b9050919050565b600073ffffffffffffffffffffffffffffffffffffffff82169050919050565b6000819050919050565b82818337600083830152505050565b60005b838110156107eb5780820151818401526020810190506107d0565b838111156107fa576000848401525b50505050565b61080982610860565b810181811067ffffffffffffffff8211171561082857610827610831565b5b80604052505050565b7f4e487b7100000000000000000000000000000000000000000000000000000000600052604160045260246000fd5b6000601f19601f8301169050919050565b7f436f756e7465723a2064656372656d656e74206f766572666c6f770000000000600082015250565b7f455243313936373a206e657720696d706c656d656e746174696f6e206973206e60008201527f6f74206120636f6e747261637400000000000000000000000000000000000000602082015250565b7f416464726573733a2064656c65676174652063616c6c20746f206e6f6e2d636f60008201527f6e74726163740000000000000000000000000000000000000000000000000000602082015250565b61094181610782565b811461094c57600080fd5b5056fe416464726573733a206c6f772d6c6576656c2064656c65676174652063616c6c206661696c6564a2646970667358221220eeefca6a1ad9a6e446ece0ff52b01443c5509e8a6074f0d27e67c2e415cd2aeb64736f6c63430008030033",
  "immutableReferences": {},
  "source": "// SPDX-License-Identifier: MIT\n\npragma solidity ^0.8.0;\n\nimport \"../CountersImpl.sol\";\nimport \"../../proxy/utils/UUPSUpgradeable.sol\";\n\ncontract UUPSUpgradeableMock is CountersImpl, UUPSUpgradeable {\n    // Not having any checks in this function is dangerous! Do not do this outside tests!\n    function _authorizeUpgrade(address) internal virtual override {}\n}\n\ncontract UUPSUpgradeableUnsafeMock is UUPSUpgradeableMock {\n    function upgradeTo(address newImplementation) external virtual override {\n        ERC1967Upgrade._upgradeToAndCall(newImplementation, bytes(\"\"), false);\n    }\n\n    function upgradeToAndCall(address newImplementation, bytes memory data) external payable virtual override {\n        ERC1967Upgrade._upgradeToAndCall(newImplementation, data, false);\n    }\n}\n\ncontract UUPSUpgradeableBrokenMock is UUPSUpgradeableMock {\n    function upgradeTo(address) external virtual override {\n        // pass\n    }\n\n    function upgradeToAndCall(address, bytes memory) external payable virtual override {\n        // pass\n    }\n\n}\n",
  "sourcePath": "/Users/thestar/Development/go/src/myprojects/contract-console/contracts/mocks/UUPS/TestInProd.sol",
  "compiler": {
    "name": "solc",
    "version": "0.8.3+commit.8d00100c.Emscripten.clang"
  },
  "schemaVersion": "3.4.1",
  "updatedAt": "2021-07-07T09:47:29.166Z",
  "devdoc": {
    "kind": "dev",
    "methods": {
      "upgradeTo(address)": {
        "details": "Upgrade the implementation of the proxy to `newImplementation`. Calls {_authorizeUpgrade}. Emits an {Upgraded} event."
      },
      "upgradeToAndCall(address,bytes)": {
        "details": "Upgrade the implementation of the proxy to `newImplementation`, and subsequently execute the function call encoded in `data`. Calls {_authorizeUpgrade}. Emits an {Upgraded} event."
      }
    },
    "version": 1
  },
  "userdoc": {
    "kind": "user",
    "methods": {},
    "version": 1
  }
}